:10000000500D00204505000041050000410500009D
:1000100000000000000000000000000000000000E0
:10002000000000000000000000000000410500008A
:100030000000000000000000410500004105000034
:100040004105000041050000410500004105000098
:100050004105000041050000410500004105000088
:100060004105000041050000410500004105000078
:100070004105000041050000410500004105000068
:100430000000000000000000FFFF0000FFFFFFFFC2
:10044000FFFFFFFFFFFFFFFFFFFFFFFFFFFFFFFFBC
:10045000FFFFFFFFFFFFFFFFFFFFFFFFFFFFFFFFAC
:10046000FFFFFFFFFFFFFFFFFFFFFFFFFFFFFFFF9C
:10047000FFFFFFFFFFFFFFFFFFFFFFFFFFFFFFFF8C
:10048000FFFFFFFFFFFFFFFFFFFFFFFFFFFFFFFF7C
:10049000FFFFFFFFFFFFFFFFFFFFFFFFFFFFFFFF6C
:1004A000FFFFFFFFFFFFFFFFFFFFFFFFFFFFFFFF5C
:1004B000FFFFFFFFFFFFFFFFFFFFFFFFFFFFFFFF4C
:1004C000FFFFFFFFFFFFFFFFFFFFFFFFFFFFFFFF3C
:1004D000FFFFFFFFFFFFFFFFFFFFFFFFFFFFFFFF2C
:1004E000FFFFFFFFFFFFFFFFFFFFFFFFFFFFFFFF1C
:1004F000FFFFFFFFFFFFFFFFFFFFFFFFFFFFFFFF0C
:10050000FFFFFFFFFFFFFFFFFFFFFFFFFFFFFFFFFB
:10051000FFFFFFFFFFFFFFFFFFFFFFFFFFFFFFFFEB
:10052000FFFFFFFFFFFFFFFFFFFFFFFFFFFFFFFFDB
:10053000FFFFFFFFFFFFFFFFFFFFFFFFFEE7C046DC
:10054000FEE7C04610B500F021F8094B09481A1A19
:10055000834202D0002100F07BF8074B07481A1AAB
:10056000834202D0064900F06BF8FFF7E7FF10BDA9
:100570004C0900204C090020000800200008002041
:100580006006000001380028FCD1704770B500E01B
:1005900000BF254B254A2649264899528E21002224
:1005A000490042541C391A62FF39263299541032DC
:1005B0009A5CD2070FD43B315A5CD207FCD501219B
:1005C0003622995418498B5C012BFCD13C221649E8
:1005D0008B5CDB07FCD49224134DE4002B5DDB071E
:1005E00016D49024104DE4002B5DDB0704D50E4A91
:1005F0000E4B1149D15270BD1048FFF7C3FF0123C4
:100600002B552B5D012BFCD14D20FFF7BBFFEEE7F7
:100610004D20FFF7B7FF00232B552B5D002BFCD19E
:100620004220FFF7AFFFDCE700E00140FE030000DF
:1006300003A5FFFF00C0014000A5FFFF61E3160016
:1006400001B40248844601BC604700BF0108002095
:1006500001B40248844601BC604700BFA5080020E1
:10066000F0B5C64600B50F2A41D903270D003E005C
:1006700005430C0003002E402F423DD11500103DD4
:100680002D09A8462D01AC46844427681D001F6033
:1006900067685F60A7689F60E7681034DF601033A9
:1006A0006545F2D145460F230C2401352D0149192A
:1006B00013404519144222D08C59AC5104369C1B6E
:1006C000032CF9D8043B9B0801339B00ED18C91893
:1006D00003231A40561E002A06D00023CC5C1A00C1
:1006E000EC5401339642F9D180BCB846F0BD050008
:1006F000561E002AF1D1F7E70500561EEDE71A0055
:10070000F6E7C046F0B50500830749D0541E002A1D
:1007100045D003000326CAB202E00135013C3ED3B6
:1007200001332A703342F8D1032C30D9FF220A401A
:10073000150215432A0415430F2C34D92700103F06
:100740003F093E01B4461E001A001036664415608B
:1007500055609560D5601032B242F8D101373F0143
:10076000DB190F270C22274022403C00002A0ED024
:100770003E1FB608B400A4461A001C1D644420C2E3
:10078000A242FCD103240136B6009B193C40002C48
:1007900005D0C9B21C19197001339C42FBD1F0BDC0
:0C07A00003001400C0E72700E2E7C04699
:020000040100F9
:10A15000FFFFFFFFFFFFFFFFFFFFFFFFFFFFFFFF0F
:04A16400FFFFFFFFFB
:0400000300000545AF
:00000001FF
